:100000000C945F030C94F2150C94CB150C947C03A8
:100010000C947C030C947C030C947C030C94841649
:100020000C947C030C947C030C947C030C947C0354
:100030000C947C030C947C030C947C030C947C0344
:100040000C9481150C947C030C947C030C947C031D
:100050000C947C030C947C030C947C030C947C0324
:100060000C947C030C947C0300407A10F35A00A09B
:10007000724E18090010A5D4E80000E87648170071
:1000800000E40B54020000CA9A3B000000E1F505B1
:10009000000080969800000040420F000000A086FB
:1000A00001000000102700000000E803000000002D
:1000B0006400000000000A000000000001000000D1
:1000C00000002C76D888DC674F0823DFC1DFAE59EB
:1000D000E1B1B796E5E3E453C63AE651997696E87E
:1000E000E6C28426EB898C9B62ED407C6FFCEFBC02
:1000F0009C9F40F2BAA56FA5F490055A2AF75C932D
:100100006B6CF9676DC11BFCE0E40D47FEF520E662
:10011000B500D0ED902E0300943577050080841E45
:10012000080000204E0A000000C80C333333330FA0
:10013000986E12831141EF8D2114893BE65516CF3D
:10014000FEE6DB18D1844B381BF77C1D901DA4BB49
:10015000E424203284725E228100C9F124ECA1E5FE
:100160003D2700000000003E5B4F5B3E3E6B4F6B47
:100170003E1C3E7C3E1C183C7E3C181C577D571C88
:100180001C5E7F5E1C00183C1800FFE7C3E7FF0001
:1001900018241800FFE7DBE7FF30483A060E26294F
:1001A000792926407F050507407F05253F5A3CE712
:1001B0003C5A7F3E1C1C08081C1C3E7F14227F22D8
:1001C000145F5F005F5F06097F017F006689956AA3
:1001D000606060606094A2FFA29408047E0408102E
:1001E000207E201008082A1C08081C2A08081E1057
:1001F0001010100C1E0C1E0C30383E3830060E3E0F
:100200000E06000000000000005F0000000700076D
:1002100000147F147F14242A7F2A12231308646297
:1002200036495620500008070300001C22410000F8
:1002300041221C002A1C7F1C2A08083E0808008056
:1002400070300008080808080000606000201008EE
:1002500004023E5149453E00427F400072494949EF
:10026000462141494D331814127F10274545453921
:100270003C4A494931412111090736494949364625
:100280004949291E00001400000040340000000805
:1002900014224114141414140041221408020159A8
:1002A00009063E415D594E7C1211127C7F49494935
:1002B000363E414141227F4141413E7F49494941CA
:1002C0007F090909013E414151737F0808087F00F9
:1002D000417F41002040413F017F081422417F407F
:1002E0004040407F021C027F7F0408107F3E414156
:1002F000413E7F090909063E4151215E7F091929C6
:1003000046264949493203017F01033F4040403FAF
:100310001F2040201F3F4038403F631408146303F0
:10032000047804036159494D43007F41414102046F
:10033000081020004141417F040201020440404076
:100340004040000307080020545478407F2844446C
:10035000383844444428384444287F385454541886
:1003600000087E090218A4A49C787F080404780081
:10037000447D40002040403D007F10284400004163
:100380007F40007C047804787C0804047838444476
:100390004438FC1824241818242418FC7C0804046D
:1003A00008485454542404043F44243C4040207CD6
:1003B0001C2040201C3C4030403C44281028444C29
:1003C0009090907C4464544C4400083641000000F6
:1003D000770000004136080002010204023C262397
:1003E000263C1EA1A161123A4040207A385454554F
:1003F0005921555579412254547842215554784019
:1004000020545579400C1E527212395555555939A0
:100410005454545939555454580000457C410002F5
:10042000457D420001457C407D1211127DF028255A
:1004300028F07C545545002054547C547C0A097F94
:100440004932494949323A4444443A324A484830A8
:100450003A4141217A3A42402078009DA0A07D3D5A
:100460004242423D3D4040403D3C24FF2424487EE2
:100470004943662B2FFC2F2BFF0929F620C0887ECD
:10048000090320545479410000447D413048484AD2
:1004900032384040227A007A0A0A727D0D19317D85
:1004A0002629292F28262929292630484D40203859
:1004B0000808080808080808382F10C8ACBA2F1018
:1004C0002834FA00007B000008142A142222142A7F
:1004D00014085500550055AA55AA55AAFF55FF55B1
:1004E000FF000000FF00101010FF00141414FF00A4
:1004F0001010FF00FF1010F010F0141414FC001482
:1005000014F700FF0000FF00FF1414F404FC14149F
:1005100017101F10101F101F1414141F001010109C
:10052000F0000000001F101010101F10101010F02D
:1005300010000000FF101010101010101010FF100D
:10054000000000FF140000FF00FF00001F10170054
:1005500000FC04F414141710171414F404F400002D
:10056000FF00F714141414141414F700F7141414DF
:10057000171410101F101F141414F4141010F0107E
:10058000F000001F101F0000001F14000000FC14EA
:100590000000F010F01010FF10FF141414FF1410DE
:1005A00010101F00000000F010FFFFFFFFFFF0F031
:1005B000F0F0F0FFFFFF0000000000FFFF0F0F0F43
:1005C0000F0F3844443844FC4A4A4A347E0202063B
:1005D00006027E027E0263554941633844443C046E
:1005E000407E201E2006027E020299A5E7A5991CE6
:1005F0002A492A1C4C7201724C304A4D4D30304809
:10060000784830BC625A463D3E494949007E010166
:10061000017E2A2A2A2A2A44445F444440514A44FB
:100620004040444A51400000FF0103E080FF0000C9
:1006300008086B6B083612362436060F090F0600C1
:100640000018180000001010003040FF0101001FCA
:1006500001011E00191D1712003C3C3C3C0000002B
:10066000000000000000240027002A000000000015
:1006700023002600290000000008000201000003FA
:100680000407000000000000000001020408102020
:10069000408001020408102001020408102000001C
:1006A0000000250028002B000404040404040404B2
:1006B00002020202020203030303030302001124E5
:1006C0001FBECFEFD8E0DEBFCDBF25E0A6EDB4E082
:1006D00001C01D92A131B207E1F714E0A0E0B1E042
:1006E000E2E3F2E502C005900D92A63DB107D9F70D
:1006F0000E94F6160C9417290C940000089580E0CF
:1007000090E008956091EB047091EC048091E8040E
:100710000C9474106091E9047091EA048091E704EC
:100720000C947410E091D904F091DA048185882347
:1007300069F084EF91E00E9431136FE070E080E097
:1007400090E00E943B158DE00E945916E091D9047B
:10075000F091DA0481E080830895CF93E091D90489
:10076000F091DA046085C1E06C27DC019096ED9190
:10077000FC91919785A10E94C512E091D904F09156
:10078000DA04C083CF910895809100019091010116
:10079000892B41F4E091D904F091DA04848588230F
:1007A00009F476C080910001909101018230910599
:1007B00089F12CF4009759F00197D1F00895833016
:1007C000910509F450C0049709F460C008958CE0C5
:1007D0000E949C12E091D904F091DA04892B09F06F
:1007E00064C08485882309F460C01092E60459C06F
:1007F0008091E6048F5F8093E604E091D904F09144
:10080000DA049585891708F46CC01092E60482E03A
:1008100090E063C08CE00E949C12892B21F481E05F
:100820008093E6043EC08091E6048F5F8093E604E7
:10083000E091D904F091DA049685891708F451C043
:1008400060E08CE00E94C512E091D904F091DA04D6
:1008500097859130D9F18091D6048F5F8093D6042B
:100860008917A0F536C08091E6048F5F8093E60477
:10087000E091D904F091DA049089891790F11092EF
:10088000E6041092010110920001089560E00AC090
:100890001092E60482E090E09093010180930001C1
:1008A00081CF61E08CE00C94C5128091E6048F5FEB
:1008B0008093E60494858917A0F060E08CE00E94A4
:1008C000C5121092E60481E090E007C084E090E059
:1008D00004C01092E60483E090E0909301018093BD
:1008E00000010895CF93DF93EC0188A199A10E94A4
:1008F000F90FE8A1F9A181E090E0918B808B138A38
:10090000128A848B88A199A1FC011586148624E1A2
:1009100030E0378726876FE774E00E94F41688A1DD
:1009200099A10E942D101AA282E08BA31CA21EA2E4
:100930001DA2DF91CF9108950C94F2240F931F9381
:10094000CF93E091D904F091DA04C285FC0100A1B3
:1009500011A1C7FDCFE761E2C8010E940D106C2F05
:100960006068C8010E940D1060E2C8010E940D106D
:10097000C8010E942D10E091D904F091DA0481E0C1
:100980008083CF911F910F910895FC0126813781BB
:1009900021153105B1F06F3F09F46581918180E047
:1009A000891779F0522F432F255F3F4FD9011B97AD
:1009B0007C91671304C05087418781E008958F5F61
:1009C000EFCF80E00895E091D904F091DA048185B9
:1009D000882369F084EF91E00E9431136FE070E0AA
:1009E00080E090E00E943B158DE00C94591608952C
:1009F0001F93CF93DF93EC018C810E949C12892B73
:100A000069F48C810E949C12892BD9F364E670E012
:100A100080E090E00E943B1511E001C010E061E031
:100A2000CE010E94C504811103C062E070E024C0C1
:100A3000F894E885F9858285128678948823A9F34D
:100A400061E0CE010E94C504882329F0E885F9857C
:100A50008181928102C080E090E0111109C061E0C3
:100A600070E02A853B852817390724F460E002C02E
:100A700062E070E09B878A87812FDF91CF911F9181
:100A80000895FC0124A1422F50E0DC01FCE02F9FDF
:100A9000A00DB11D11249F96ED91FC91D097309738
:100AA00021F4D1962C9120FF1EC02CE0249FD00170
:100AB000259FB00D1124A80FB91FD1962D913C91FF
:100AC000D297A9015595479520FF0AC0DC01A40FD4
:100AD000B51F2D913C91E20FF31F0190F081E02DA5
:100AE000840F951F09940895BF92CF92DF92EF92E1
:100AF000FF920F931F93CF93DF93EC0188A199A1ED
:100B00000E94F90FE8A1F9A181E0848BE8A1F9A185
:100B100081E090E0918B808B138A128A8FE090E0C5
:100B2000958784871786168669E874E0CF010E944E
:100B3000F41688A199A1DC01ED91FC91068CF78D4A
:100B4000E02D01E010E023E530E04AE050E060E015
:100B500070E009957E01B7EBEB0EF11C10E0CC24A0
:100B6000C394D12C9CE0B92E0AA1010FF701819109
:100B70007F01E8A1F9A11586148690E09787868702
:100B80008CA1081307C0118A108AD38AC28A63E92C
:100B900074E006C0D18AC08A138A128A6DE274E0BA
:100BA000CF010E94F416FE01B09EE00DF11D11244C
:100BB00067A170A588A199A10E94F4161F5F133048
:100BC00099F688A199A1DF91CF911F910F91FF9084
:100BD000EF90DF90CF90BF900C942D10E091DB044C
:100BE000F091DC0485A196A18230910519F003975C
:100BF000B1F0089512A282E083A314A281E090E0F4
:100C000096A385A3E091D704F091D80480E090E00A
:100C1000A0E8BFEB82839383A483B5830895CF01BB
:100C20000E947405E091DB04F091DC0482E090E026
:100C300096A385A308957F928F929F92AF92BF92C1
:100C4000CF92DF92EF92FF920F931F93CF93DF9398
:100C5000CDB7DEB765970FB6F894DEBF0FBECDBF38
:100C6000E091DB04F091DC0425A136A123303105AD
:100C700009F05EC2811155C26115710521F0613024
:100C80007105B9F16EC084A1282F30E0DF019CE02E
:100C9000899FA00DB11D112499968D919C919A97D1
:100CA0008430910534F48130910534F4892B81F03E
:100CB00052C0049769F04FC09B96ED91FC919C97B0
:100CC00080819E969C91891708F045C08F5F0FC068
:100CD0004CE0429FC001439F900D1124E80FF91F83
:100CE00003A4F4A5E02D8081811135C081E08083CB
:100CF00032C084A1282F30E0DF019CE0899FA00D45
:100D0000B11D112499968D919C919A9784309105EB
:100D100034F48130910534F4892B79F01CC00497A8
:100D200061F019C09B96ED91FC919C9780819D96F6
:100D30009C91981780F48150DACF4CE0429FC0011B
:100D4000439F900D1124E80FF91F03A4F4A5E02D93
:100D5000808181111082E091D904F091DA0481E060
:100D60008083E090DB04F090DC04D70194968C91B2
:100D7000F701BCE08B9FE00DF11D1124B7960081B7
:100D80001181C280D380A480B580F70180A191A198
:100D90000E94F90FD7019096ED91FC91919781E017
:100DA000848B9096ED91FC91919781E090E0918BEE
:100DB000808B138A128A85E0882E912C95868486F2
:100DC00017861686B801CF010E94F416F70180A19C
:100DD00091A1DC01ED91FC91068CF78DE02D01E0F5
:100DE00010E023E530E04AE050E060E070E0099573
:100DF000F70180A191A1DC011D969C928E921C9717
:100E00002FE030E01F963C932E931E97B2E0CB1656
:100E1000D10491F01CF4D7FC13C00BC0F3E0CF1643
:100E2000D10439F024E0C216D10451F46FEA74E021
:100E300005C069EA74E002C06CE974E00E94F4162F
:100E4000D7019096ED91FC91919782E0848B9096DA
:100E5000ED91FC91919785E090E09587848789E1F9
:100E600090E097878687198A188A1B8A1A8A1D8AB2
:100E70001C8A47E050E064EB74E0CE0140960E948B
:100E80005012B4E0CB16D10444F4E1E0CE16D10404
:100E90000CF5C114D10431F062C0F4E0CF16D104D6
:100EA00059F05DC0D5018C91811103C068E974E0EF
:100EB0000CC065E974E009C0F5018081811103C0AF
:100EC00062EA74E002C06CE974E0CE0140960E94D0
:100ED0007B1245C0D5018C911B861A861D861C8607
:100EE0001F861E864AE0BE016F5F7F4F90E00E9422
:100EF000D81EBE016F5F7F4FCE010A960E947B1203
:100F0000888999890097A9F06A857B8561157105A3
:100F100071F04A895B892E853F854217530738F067
:100F20000E946F268E859F859D8B8C8B12C00E94A0
:100F3000F2248A859B85998B888B8C859D859B8BDC
:100F40008A8B8E859F859D8B8C8B1B861A861D8632
:100F50001C861F861E868A859B850E94F224F701C7
:100F600080A191A1DC01ED91FC914C895D8968899A
:100F700079890280F381E02D0995D7019096ED9152
:100F8000FC91919781E0848B9096ED91FC919197E3
:100F9000B2E0CB16D10439F123E0C216D10409F036
:100FA000B0C087E390E0958784878EE190E09787D3
:100FB00086871F9287EF8F938CEB94E09F938F939C
:100FC000FF92EF920E947626B701D70190968D91FD
:100FD0009C9191970E94F4160F900F900F900F9094
:100FE0000F900F908EC083E290E09587848788E20F
:100FF00090E097878687F501608170E080E090E05F
:101000000E946F2120E030E040E251E40E94CE21B6
:101010000E94D2234B015C0128EE33E040E050E017
:101020000E940D24722E022F10E088E19CEF089F91
:101030006001099FD00C189FD00C1124C80CD91C3A
:101040001B861A861D861C861F861E8640E050E081
:1010500064ED74E0CE010A960E9450127720E9F008
:101060004AE0CE0101965C01BC01C8010E94CD1E80
:10107000F50101900020E9F73197AF014A195B09AA
:10108000B501CE010A960E94221242E050E060ECC7
:1010900074E0CE010A960E9422121C141D04ECF486
:1010A0004AE08E010F5F1F4FB801C6010E94CD1E9E
:1010B000F80101900020E9F73197AF01401B510B77
:1010C000B801CE010A960E94221242E050E063EC81
:1010D00074E0CE010A960E942212D70190968D915B
:1010E0009C919197DC01ED91FC914E855F856A851D
:1010F0007B850280F381E02D09958A859B850E947E
:10110000F224F70180A191A10E942D10888999896C
:101110000E94F2248091DB049091DC040E9441053E
:1011200007C082E090E096A385A3CF010E947405DA
:1011300065960FB6F894DEBF0FBECDBFDF91CF919D
:101140001F910F91FF90EF90DF90CF90BF90AF90E5
:101150009F908F907F900895CF92DF92EF92FF92B1
:101160000F931F93CF93DF93EC01E8A1F9A182E0E5
:10117000848BFB01C080D180E280F38020E030E0EE
:10118000A901C701B6010E94082418165CF42DECD1
:101190003CEC47EC52E4C701B6010E940824181643
:1011A00074F00AC02DEC3CEC47EC52ECC701B601E0
:1011B0000E94682187FD03C08AE090E002C080E0C1
:1011C00090E0E8A1F9A19587848782E290E0978773
:1011D00086878E0121E041E0C701B6010E94AD1E65
:1011E000BE0188A199A10E94F416E8A1F9A181E0AD
:1011F000848BE8A1F9A188E490E09587848788E250
:1012000090E0978786871F9287EF8F938CEB94E00F
:101210009F938F93DF93CF930E9476260F900F902A
:101220000F900F900F900F90BE0188A199A1DF91B0
:10123000CF911F910F91FF90EF90DF90CF900C9482
:10124000F4160895CF93DF93EC01DC01119681E150
:10125000FD0111928A95E9F786E0EEE4F3E0019052
:101260000D928A95E1F781E08F838887898798E2DC
:101270009A8794E09B8722E02C8725E02D879E8724
:101280008F878AE0888B82E3898BDF91CF910895E5
:10129000FF920F931F93CF93DF93EC0188A199A145
:1012A0000E94F90FE8A1F9A1FF24F394F48AE8A1C0
:1012B000F9A181E090E0918B808B138A128A8FE0F4
:1012C00090E0958784871786168666EC74E0CF01D8
:1012D0000E94F41688A199A1DC01ED91FC91068C85
:1012E000F78DE02D01E010E023E530E04AE050E02A
:1012F00060E070E00995E8A1F9A112E0148B88A1E3
:1013000099A125E030E0FC013587248729E130E010
:10131000378726876CEC74E00E94F41688A199A1A7
:101320000E942D108091D9049091DA040E94220924
:10133000E091D904F091DA04F082CE010E949E047B
:10134000CE010E94AD03CE010E9492031AA21BA3FC
:101350001CA21EA21DA2DF91CF911F910F91FF90A1
:1013600008950895FC016370658B848195812681C1
:101370003781613039F0633029F091878087338776
:1013800022870895318720879387828708952F9237
:101390003F924F925F926F927F928F929F92AF9205
:1013A000BF92CF92DF92EF92FF920F931F93CF9352
:1013B000DF93CDB7DEB76C970FB6F894DEBF0FBEE4
:1013C000CDBF9C8F8B8F5B011A011F830E8337016A
:1013D000C982DC0158964D915C9159974115510590
:1013E00009F0E5C018968D919C91199768177907B7
:1013F0000CF0CAC11A968D919C911B97281639063C
:101400000CF0C2C18C2C912CFB0136E0C39EE00D88
:10141000F11D1124FB87EA871E161F060CF0B4C1CC
:10142000C40133E0880F991F3A95E1F79D878C87B7
:10143000820D931D181619060CF0A6C157968C91B3
:10144000811103C0203B08F02F5FAB8DBC8DED9167
:10145000FC9111970284F385E02DCD012A8F099527
:101460002A8DB5E02B9F90011124F5013596FF8759
:10147000EE87BB82AA822501A9014A195B09598B13
:10148000488BC10108969B8B8A8BE889F989E40D0A
:10149000F51DEE59FE4F9491988761013D822C8293
:1014A000A885A0FF13C0AB8DBC8DED91FC91B981D7
:1014B000B13031F40484F585E02D2E813F8116C0D2
:1014C0000684F785E02DEE80FF801AC0EE81FF8153
:1014D0006E167F06F1F0AB8DBC8DED91FC91B9815C
:1014E000B13051F40484F585E02D9301A601B201D9
:1014F0008B8D9C8D09950DC00684F785E02D7301B9
:10150000840194014C815D816A817B818B8D9C8DEE
:101510000995E885E695E887FFEFCF1ADF0A2C8169
:101520003D81280D391D3D832C834A895B89C41672
:10153000D50609F0B5CF5FEF451A550A8A819B8120
:10154000880D991D9B838A83AE85BF854A165B06ED
:1015500009F09BCFEE81FF816E167F0609F4F2C081
:10156000EB8DFC8DA081B181F981F13079F4B50169
:101570006B5F7F4F5096ED91FC915197830128E06E
:1015800030E0A1018B8D9C8D0995DCC06A857B853F
:10159000681979091E96ED91FC911F9773010C85CE
:1015A0001D859401A1018B8D9C8D0995CBC0FA01FD
:1015B00034969491329765917491291BCB01B7E0D1
:1015C0002B9F800D911D1124FA01259134913B8BA5
:1015D0002A8BFC01459154915B834A83FC0132962E
:1015E000C490319654915E87329614913196D4907E
:1015F0008981823058F0612E012E000C7708AD2DC4
:101600000D2C000CBB0BB987A88704C0198618865F
:10161000612C712CAB8DBC8DED91FC9111970284E6
:10162000F385E02DCD010995B9818B2E912C689C15
:10163000C001699C900D789C900D1124FC01EA0D6D
:10164000FB1DFD87EC871C82712C612CE12F110F93
:10165000FF0B95012E0F3F1F3B872A87AC0CB11C57
:10166000A5014E0F5F1F5F8B4E8BC1018D0D911D2C
:10167000D7FC9A95998F888F4E85641608F062C0C2
:10168000862D90E048855985480F591F489D900147
:10169000499D300D589D300D1124D901A20DB31D67
:1016A000B98BA88BAA84BB844C845D84DC80BA850A
:1016B000DB1AE88DF98DE80FF91FFD8BEC8B8D2D72
:1016C0008A0D2E893F89A216B306B9F1877061F49D
:1016D0008A819B810196EA89FB89AA81BB81EA0FF5
:1016E000FB1F74909B838A8377FE20C0AB8DBC8DDB
:1016F000ED91FC91B981B13061F40484F585E02D60
:101700002E813F814C895D89B5018B8D9C8D09951A
:101710000DC00684F785E02DEE80FF8084019401E2
:1017200048895989B2018B8D9C8D0995770CEFEF13
:10173000AE1ABE0A480C591CC2CF3C813C0D3C83FA
:1017400063949ACFAB8DBC8DED91FC911197068877
:10175000F789E02DCD016C960FB6F894DEBF0FBE71
:10176000CDBFDF91CF911F910F91FF90EF90DF9050
:10177000CF90BF90AF909F908F907F906F905F9031
:101780004F903F902F9009946C960FB6F894DEBF5F
:101790000FBECDBFDF91CF911F910F91FF90EF90C2
:1017A000DF90CF90BF90AF909F908F907F906F9081
:1017B0005F904F903F902F900895AF92BF92CF923D
:1017C000EF92FF920F931F93CF93DF93EC01262F9D
:1017D000888D998D009709F040C06A3059F41D86B4
:1017E0001C862C898E859F8538E0239F800D911D56
:1017F000112441C06D3009F4AAC08E898823C1F03C
:101800003C898C859D8546E0349F800D911D112477
:1018100048855985481759075CF41D861C868E85B6
:101820009F8548E0349F800D911D11249F878E87EE
:10183000EA88FB88088919894E855F856C857D85D6
:10184000CC88CE010E94C7092C898C859D8536E005
:10185000239F800D911D112442C06A3079F41D86AA
:101860001C862C89FC013696E4918E859F852E9FDF
:10187000800D911D11249F878E8769C06D3009F4FA
:1018800066C0FC0134963491631708F460C0319649
:10189000E491E61708F45BC0FC013296A590B49081
:1018A000462F50E0431B510937E0349FB001359F6C
:1018B000700D1124A60EB71EF501329634913196A3
:1018C000E491332311F0E1110DC0F5013496E49158
:1018D0002C898C859D85E29F800D911D11249D870B
:1018E0008C8735C0F501359644915E89552311F1F9
:1018F0006C89E32FF0E0E40FF11D47FDFA956E9F30
:10190000D0016F9FB00D11244C855D854A0F5B1F80
:10191000E885F985E417F5076CF41D861C86FC0143
:101920003696E4918E859F856E9F800D911D1124C2
:101930009F878E87EA88FB88088919894E855F858D
:101940006C857D85CC88CE010E94C709BECF81E021
:1019500090E0DF91CF911F910F91FF90EF90CF908A
:10196000BF90AF9008956F927F928F929F92AF92A7
:10197000BF92CF92DF92EF92FF920F931F93CF937C
:10198000DF93EC014B015A0169013801E881F981CB
:101990000284F385E02D0995E881F9810288F389B5
:1019A000E02D87019601A501B401CE010995E881DA
:1019B000F981A501460D571D415051090288F3894F
:1019C000E02D9601B401CE010995E881F9810088E6
:1019D000F189E02D9301A501B401CE010995E881BB
:1019E000F981C80CD91CB601615071090088F189D0
:1019F000E02D9301A501CE010995E881F9810688C2
:101A0000F789E02DCE01DF91CF911F910F91FF90CB
:101A1000EF90DF90CF90BF90AF909F908F907F908E
:101A20006F900994CF92DF92EF92FF920F931F93E2
:101A3000CF93DF9300D000D000D0CDB7DEB76C01DC
:101A4000DC01ED91FC916217730789F40417150707
:101A50002CF4942F852FA801092F182F041B150B88
:101A600098012F5F3F4F048CF58DE02D12C0401779
:101A7000510709F5261737072CF4962F872FB90140
:101A8000292F382F261B370B2F5F3F4F068CF78DE2
:101A9000E02D8701C601099526960FB6F894DEBFA2
:101AA0000FBECDBFDF91CF911F910F91FF90EF90AF
:101AB000DF90CF9008950284F385E02D2D833E833F
:101AC0004B835C8369837A830995D601ED91FC9100
:101AD0000488F589E02D2D813E814B815C816981EF
:101AE0007A81C6010995D601ED91FC910688F789A6
:101AF000E02DC60126960FB6F894DEBF0FBECDBF0F
:101B0000DF91CF911F910F91FF90EF90DF90CF90D9
:101B10000994EF92FF920F931F93DC01ED91FC91DA
:101B200011971A960D911C911B9718962D913C9127
:101B3000199700A0F1A1E02D7B0140E050E060E0AA
:101B400070E009951F910F91FF90EF9008954F92CB
:101B50005F926F927F928F929F92AF92BF92CF923D
:101B6000DF92EF92FF920F931F93CF93DF9300D0FA
:101B7000CDB7DEB76C015A0139014801DC01ED91A6
:101B8000FC910284F385E02D69837A83099569814C
:101B9000462E7A81572E640C751CD601ED91FC916E
:101BA000461457046CF40088F189E02D87019401F4
:101BB000A501B201C6010995BFEF4B1A5B0AEDCF33
:101BC0000688F789E02DC6010F900F90DF91CF9125
:101BD0001F910F91FF90EF90DF90CF90BF90AF904B
:101BE0009F908F907F906F905F904F900994AF92ED
:101BF000BF92CF92DF92EF92FF920F931F93CF93FA
:101C0000DF9300D000D0CDB7DEB75C016901DC0105
:101C1000ED91FC910284F385E02D4B835C83698315
:101C20007A830995D501ED91FC9169817A819B01B7
:101C30002C0D3D1D215031090488F589E02D7801D6
:101C40004B815C818A01C5010995D501ED91FC911B
:101C50000688F789E02DC5010F900F900F900F9027
:101C6000DF91CF911F910F91FF90EF90DF90CF9078
:101C7000BF90AF900994AF92BF92CF92DF92EF9254
:101C8000FF920F931F93CF93DF9300D000D0CDB777
:101C9000DEB75C016901DC01ED91FC910284F38502
:101CA000E02D4B835C8369837A830995D501ED919F
:101CB000FC914B815C81C40ED51EB1E0CB1AD108DA
:101CC0000488F589E02D7801860169817A819B017C
:101CD000C5010995D501ED91FC910688F789E02DA4
:101CE000C5010F900F900F900F90DF91CF911F9132
:101CF0000F91FF90EF90DF90CF90BF90AF9009943D
:101D00000895EF92FF920F931F93DC01ED91FC91E8
:101D100000A0F1A1E02D09951F910F91FF90EF9088
:101D200008950F931F93DC01ED91FC91068CF78DC4
:101D3000E02D09951F910F9108950F931F93DC01DA
:101D4000ED91FC91048CF58DE02D09951F910F917B
:101D50000895DC01ED91FC910084F185E02D09945A
:101D600008952F923F924F925F926F927F928F923F
:101D70009F92AF92BF92CF92DF92EF92FF920F931A
:101D80001F93CF93DF9300D01F92CDB7DEB74C01E6
:101D90007B836A836A01590117019801241B350B63
:101DA00037FF03C0319521953109C5014A815B8117
:101DB000841B950B97FF03C091958195910951E084
:101DC00059838217930714F019820BC09A2D8B2D1B
:101DD0005801092F182F9A818B81DB82CA82C92E64
:101DE000D82E8A819B81A816B9065CF49C2D8D2D76
:101DF0006801092F182F9A818B81BB82AA82A92E94
:101E0000B82E2501AA81BB814A1A5B0A38016C18D9
:101E10007D0877FE03C0719461947108720157FECA
:101E200003C0BFEFEB1AFB0AF594E794C016D10686
:101E30001CF00FEF1FEF1FC001E010E01CC0D40129
:101E4000ED91FC91B9810484F585E02D9101BB23CE
:101E5000C1F04A815B81B601C4010995E618F70813
:101E6000F7FE04C0C00ED11EE40CF51CEA81FB8114
:101E70003196FB83EA834A815B81A416B506FCF6A2
:101E800004C0A6016A817B81E7CF0F900F900F906D
:101E9000DF91CF911F910F91FF90EF90DF90CF9046
:101EA000BF90AF909F908F907F906F905F904F907A
:101EB0003F902F900895FC01828D8F3F19F4838D00
:101EC0008F3F11F128E030E090E8A1A1B2A14C9140
:101ED00084A1809584238C93A78DB0A183A1492FE1
:101EE000462319F04C91842B03C04C918095842398
:101EF0008C93A1A1B2A14C9184A1842B8C93969533
:101F00002150310911F708956EBD00000DB407FE90
:101F1000FDCF8EB50895FC0177FD68C08085918561
:101F2000681779070CF062C057FD60C08285938501
:101F3000481759070CF05AC08589823059F0833010
:101F4000B1F08130D1F48FE290E0861B970BBA019B
:101F5000AC0113C083E590E0FC01E61BF70BBF0169
:101F60008FE290E0FC01E41BF50BAF0106C083E5B6
:101F700090E0841B950BAB01BC0164357105B0F595
:101F80004033510598F5CA01E3E095958795EA95A8
:101F9000E1F747705527232BA1F024E5289FF00196
:101FA000299FF00D11246E0F7F1FFB01ED5FFE4F87
:101FB00081E090E001C0880F4A95EAF79081892B73
:101FC00014C024E5289FF001299FF00D11246E0F05
:101FD0007F1FFB01ED5FFE4F81E090E001C0880FA5
:101FE0004A95EAF7809590818923808308950E941D
:101FF000542628EF31E0E3E0F1E0DF01A9011D9272
:1020000041505040E1F7DC011D961C921E921C9736
:102010001F961C921E921E9708951F93CF93DF93D5
:10202000EC01162F60E08C8D0E94C5128E8D181663
:102030001CF460E00E94C512612FCE010E945B0F6C
:102040008E8D181634F461E0DF91CF911F910C94BE
:10205000C512DF91CF911F910895CF92DF92EF9239
:10206000FF921F93CF93DF93EC0183E0C82E81E0B2
:10207000D82E10E0612F6064CE010E940D1060E840
:10208000CE010E940D1061E08C8D0E94C5128E8DD4
:1020900018161CF460E00E94C512E12CF12CF60128
:1020A000EE0DFF1D6081CE010E945B0F8FEFE81ADD
:1020B000F80A84E5E816F10491F78E8D18161CF4E1
:1020C00061E00E94C5121F5F84E5C80ED11C163066
:1020D00089F660E4CE01DF91CF911F91FF90EF90E0
:1020E000DF90CF900C940D10CF93DF93EB0191E034
:1020F0009A870E949C12019799F48F819885298173
:102100003A81820F931F9A83898329813A818D8135
:102110009E8182179307ECF48985882399F015C076
:102120002F81388589819A81821B930B9A838983B9
:1021300029813A818B819C812817390754F489853C
:10214000882319F08D819E8102C08B819C819A83A6
:102150008983DF91CF9108950895833081F028F429
:10216000813099F08230A1F008958730A9F088304D
:10217000B9F08430D1F4809180008F7D03C08091CC
:1021800080008F7780938000089584B58F7702C098
:1021900084B58F7D84BD08958091B0008F7703C092
:1021A0008091B0008F7D8093B00008953FB7F89480
:1021B0008091F9049091FA04A091FB04B091FC0481
:1021C00026B5A89B05C02F3F19F00196A11DB11D92
:1021D0003FBFBA2FA92F982F8827820F911DA11DCD
:1021E000B11DBC01CD0142E0660F771F881F991F0A
:1021F0004A95D1F7089508950F931F93CF93DF93D6
:10220000EC0188819981009729F02A813B8126176A
:10221000370788F48B016F5F7F4F0E948A250097F4
:1022200061F0998388831B830A832C813D81232B52
:1022300011F4FC01108281E001C080E0DF91CF91B8
:102240001F910F910895CF92DF92EF92FF920F931B
:102250001F93CF93DF931F92CDB7DEB77C018C0124
:10226000C12CD12CF80161918F01C60169830E94B4
:102270008C226981681719F0C6010E949422FFEF31
:10228000CF1ADF0A81E1C816D10461F7C7010F90A8
:10229000DF91CF911F910F91FF90EF90DF90CF9042
:1022A0000895CF93DF93EC0161E00E94C504882379
:1022B000B1F091E09D83F8949A81923039F42885A9
:1022C00039853093EC042093EB0408C0933031F44B
:1022D000288539853093EA042093E9047894DF91C6
:1022E000CF9108951F93CF93DF93FC01268137810F
:1022F000232B09F4A2C0EC0161E00E94C504811106
:102300009CC089819881891708F097C09A81923082
:1023100009F491C0933011F01FEF01C011E0109249
:10232000FE041092FD04EE81FF813BE0839FE00DEF
:10233000F11D112421E020838E819F813981FC01D0
:102340004BE0349FE00DF11D11241282118239817E
:10235000FC014BE0349FE00DF11D112441E05FEFE3
:10236000548343833981FC014BE0349FE00DF11D20
:1023700011244FEF50E0568345833981FC014BE037
:10238000349FE00DF11D112441E050E05087478358
:102390003981FC014BE0349FE00DF11D11242187B0
:1023A0002981FC013BE0239FE00DF11D11241286E1
:1023B00089818F5F8983CE010E9451118A81823089
:1023C00051F48091E804811115C08B818093E80459
:1023D00082E893E00BC0833069F48091E7048111B7
:1023E00009C08B818093E7048AE893E09093FE0410
:1023F0008093FD048091FD049091FE040097C9F044
:102400001230B8F4E12FF0E0EE0FFF1FE550FD4F62
:102410009183808380916900113031F08C7F8260DC
:1024200080936900E89A05C0837F88608093690083
:10243000E99A81E003C010E072CF80E0DF91CF9194
:102440001F910895EF92FF920F931F93CF93DF9305
:10245000FC01248135816115710511F480E019C0FA
:1024600041155105A9F07B01EC018A01020F131FF0
:10247000B8010E94FC10882389F3288139818C815E
:102480009D81B701820F931F0E946F261D830C83CD
:1024900081E0DF91CF911F910F91FF90EF90089510
:1024A000EF92FF920F931F93CF93DF93EC017B0189
:1024B0008A01BA010E94FC102881398181110DC066
:1024C0002115310519F0C9010E94F22419821882E0
:1024D0001D821C821B821A8206C01D830C83B701D9
:1024E000C9010E946F26CE01DF91CF911F910F91FC
:1024F000FF90EF900895CF93DF93EC016115710584
:1025000059F0FB0101900020E9F73197AF01461B1C
:10251000570B0E9450120CC088819981009711F0CE
:102520000E94F224198218821D821C821B821A8248
:10253000CE01DF91CF910895CF93DF93282F30E024
:10254000F901EA58F94F8491F901E657F94FD4910E
:10255000F901E855F94FC491CC2391F081110E9403
:10256000AD10EC2FF0E0EE0FFF1FE459F94FA591ED
:10257000B491EC91ED2381E090E021F480E002C081
:1025800080E090E0DF91CF9108951F93CF93DF9388
:10259000282F30E0F901EA58F94F8491F901E65704
:1025A000F94FD491F901E855F94FC491CC23C9F002
:1025B000162F81110E94AD10EC2FF0E0EE0FFF1FDF
:1025C000E256F94FA591B4918FB7F894111105C057
:1025D0009C91ED2FE095E92302C0EC91ED2BEC935B
:1025E0008FBFDF91CF911F910895CF93DF9390E03C
:1025F000FC01E657F94F2491FC01E855F94F84910D
:10260000882361F190E0880F991FFC01EE59F94F82
:10261000C591D491FC01E256F94FA591B491611195
:1026200009C09FB7F8948881209582238883EC9114
:102630002E230BC0623061F49FB7F8943881822F4B
:10264000809583238883EC912E2B2C939FBF06C00B
:102650008FB7F894E8812E2B28838FBFDF91CF911D
:1026600008958F929F92AF92BF92CF92DF92EF9296
:10267000FF92CF932091FF022D3021F02F3F09F0E0
:10268000F0C104C0ECEBF6E0C49172C02DE02093E1
:10269000FF02ECEBF6E0C491CF3F09F4E2C1C13098
:1026A00009F1C23009F441C0C11162C014BC15BCAB
:1026B00024B5226024BD25B5216025BDE5EBF6E0FB
:1026C000E491F0E0EE0FFF1FE256F94F25913491AF
:1026D0003093040520930305E7E9F6E0E491E093E5
:1026E000020548C010928000109281002091810064
:1026F0002860209381002091810021602093810037
:10270000E5EBF6E0E491F0E0EE0FFF1FE256F94F43
:10271000259134913093010520930005E7E9F6E017
:10272000E491E093FF04C1E025C01092B000109244
:10273000B1002091B00022602093B0002091B10040
:1027400021602093B100E5EBF6E0E491F0E0EE0FBC
:10275000FF1FE256F94F259134913093EF042093F7
:10276000EE04E7E9F6E0E491E093ED04C2E002C094
:10277000C7FD77C14C0161E08DE00E94F512A12CEC
:10278000B12C8C2F8D7F09F0A9C060E072E18AE73F
:1027900090E0A50194010E940D2469017A01BA011B
:1027A000A90141505109610971094F3F5105610566
:1027B000710509F008F445C060E472E48FE090E030
:1027C000A50194010E940D24BA01A90141505109AB
:1027D00061097109C230E9F44F3F51056105710586
:1027E00009F008F43CC160E970ED83E090E0A501D8
:1027F00094010E940D24BA01A901415051096109B7
:1028000071094F3F51056105710509F0A8F583E095
:102810005EC04F3F510561057105A9F0A0F068E465
:1028200078EE81E090E0A50194010E940D24BA01A8
:10283000A9014150510961097109CC2309F4BEC0B5
:1028400006C181E001C082E0CC2389F040C0D701FD
:10285000C6012AE0B595A795979587952A95D1F752
:10286000AC01BD01415051096109710985E095B57F
:10287000987F892B85BD66C068E478EE81E090E0A2
:10288000A50194010E940D24BA01A90141505109EA
:10289000610971094F3F51056105710509F008F49F
:1028A0008BC064E274EF80E090E0A50194010E9487
:1028B0000D24BA01A90141505109610971094F3F25
:1028C00051056105710511F008F097C085E0909100
:1028D000B100987F892B8093B1002EC060E072E137
:1028E0008AE790E0A50194010E940D24BA01A90194
:1028F00041505109610971094115510581E068078D
:10290000710580F068E478EE81E090E0A501940123
:102910000E940D24BA01A9014150510961097109B0
:1029200093E001C091E0C13039F480918100887F4B
:10293000892B8093810018C0C130B1F0C23049F1B9
:10294000C1118FC047BD8FEF9FEFDC018093090558
:1029500090930A05A0930B05B0930C0580916E002F
:10296000826080936E007DC0509389004093880000
:102970008FEF9FEFDC018093050590930605A093F0
:102980000705B093080580916F00826080936F0007
:1029900068C04093B3008FEF9FEFDC018093F00499
:1029A0009093F104A093F204B093F304809170002B
:1029B00082608093700055C084E089CF4F3F5105FD
:1029C00061057105C1F0B8F062E17AE780E090E05E
:1029D000A50194010E940D24BA01A9014150510999
:1029E000610971094F3F51056105710511F008F04A
:1029F0002ECF84E03CCF83E03ACF62E17AE780E0FB
:102A000090E0A50194010E940D24BA01A901415052
:102A10005109610971094F3F510561057105A9F01F
:102A2000A0F0D701C6013AE0B595A795979587958F
:102A30003A95D1F7AC01BD014150510961097109C5
:102A4000CC2309F413CF87E042CF86E0FDCE4F3F81
:102A500051056105710509F080F684E0F5CE82E04C
:102A600036CFCF91FF90EF90DF90CF90BF90AF9097
:102A70009F908F9008958F929F92AF92BF92CF9226
:102A8000DF92EF92FF926B017C010E94D6104B0106
:102A90005C01C114D104E104F104F1F00E94D610EC
:102AA000DC01CB0188199909AA09BB09883E93402A
:102AB000A105B10570F321E0C21AD108E108F108BF
:102AC00088EE880E83E0981EA11CB11CC114D104AD
:102AD000E104F10419F7DDCFFF90EF90DF90CF9084
:102AE000BF90AF909F908F9008952FB7F89460910A
:102AF000F5047091F6048091F7049091F8042FBFCB
:102B000008951F920F920FB60F9211242F933F93A7
:102B10008F939F93AF93BF938091F5049091F604A8
:102B2000A091F704B091F8043091F40423E0230F4E
:102B30002D3720F40196A11DB11D05C026E8230FF5
:102B40000296A11DB11D2093F4048093F504909387
:102B5000F604A093F704B093F8048091F9049091DF
:102B6000FA04A091FB04B091FC040196A11DB11DD3
:102B70008093F9049093FA04A093FB04B093FC04AF
:102B8000BF91AF919F918F913F912F910F900FBE69
:102B90000F901F9018951F920F920FB60F9211244D
:102BA0002F933F934F935F936F937F938F939F9355
:102BB000AF93BF93EF93FF93E091FD02F091FE027C
:102BC0000995FF91EF91BF91AF919F918F917F9167
:102BD0006F915F914F913F912F910F900FBE0F908A
:102BE0001F9018951F920F920FB60F9211242F93DA
:102BF0003F934F935F936F937F938F939F93AF9385
:102C0000BF93EF93FF93E091FB02F091FC020995D3
:102C1000FF91EF91BF91AF919F918F917F916F91B4
:102C20005F914F913F912F910F900FBE0F901F908A
:102C30001895CF92DF92EF92FF920F931F93CF934D
:102C4000DF936C017A018B01C0E0D0E0CE15DF0587
:102C500089F0D8016D918D01D601ED91FC91019023
:102C6000F081E02DC6010995892B11F47E0102C087
:102C70002196ECCFC701DF91CF911F910F91FF906B
:102C8000EF90DF90CF9008956115710579F0FB0109
:102C900001900020E9F73197AF01461B570BDC018B
:102CA000ED91FC910280F381E02D099480E090E0A9
:102CB00008959091FF02981324C0ECEBF6E0E491A4
:102CC0009FEF9093FF02E130B9F098F0E230C9F441
:102CD000909170009D7F9093700091E09093B00070
:102CE0009091B100987F94609093B1001092B300DE
:102CF00008C010926E0005C090916F009D7F909368
:102D00006F0060E00C94C5121F920F920FB60F92E5
:102D100011242F933F934F935F936F937F938F93E0
:102D20009F93AF93BF93EF93FF938091F0049091A3
:102D3000F104A091F204B091F304892B8A2B8B2B20
:102D400051F18091ED04E091EE04F091EF04908157
:102D5000892780838091F0049091F104A091F2047E
:102D6000B091F304181619061A061B06C4F48091D4
:102D7000F0049091F104A091F204B091F304019752
:102D8000A109B1098093F0049093F104A093F20497
:102D9000B093F30404C08091FF020E945916FF9182
:102DA000EF91BF91AF919F918F917F916F915F91C3
:102DB0004F913F912F910F900FBE0F901F9018953C
:102DC0000F931F93CF93DF93EC010E9444168C0165
:102DD00062ED74E0CE010E944416800F911FDF91D6
:102DE000CF911F910F9108950C944416CF93DF93C8
:102DF00000D000D01F92CDB7DEB7789484B5826042
:102E000084BD84B5816084BD85B5826085BD85B58E
:102E1000816085BD80916E00816080936E0010920C
:102E20008100809181008260809381008091810087
:102E30008160809381008091800081608093800018
:102E40008091B10084608093B1008091B000816076
:102E50008093B00080917A00846080937A008091A2
:102E60007A00826080937A0080917A0081608093FA
:102E70007A0080917A00806880937A001092C10075
:102E800082E190E00E945D248C0182E1D8011D92D4
:102E90008A95E9F71093DA040093D9046801BFEF2B
:102EA000CB1ADB0A5601E12CF12CC7010E948C22BF
:102EB000F50181935F01FFEFEF1AFF0A21E1E216AE
:102EC000F10499F746E050E06EE473E0C6010E9419
:102ED0005926892B41F0C8010E942209C6010E948F
:102EE0002311D8011C928CE090E00E945D248C019B
:102EF000FC01108211828BE090E00E945D24D801D9
:102F000017969C938E931697892BA9F081E08C934A
:102F10008FE014968C9362E00E94F51283E0F80132
:102F2000828362E00E94F5128EE0D80113968C93A2
:102F300062E00E94F512F801138612861093E104F4
:102F40000093E004C8010E947211C8010E9451114F
:102F500061E0C8010E94C504882341F0D801189699
:102F6000ED91FC9119978181928102C080E090E0FF
:102F7000F801938782876FEFC8010E94C5048823F8
:102F800039F0D8011896ED91FC91199781E082876C
:102F9000C8010E94F80481E090E00E945D249093B3
:102FA000DF048093DE048AEB90E00E945D248C01B4
:102FB00081E090E0F80196A385A3E954FF4F8FE0EC
:102FC0008083319689E18083319683E2808386E233
:102FD00090E00E945D247C01DC0113961C921E92FD
:102FE000129724E530E015963C932E93149780E3D6
:102FF00090E017969C938E93169719963C932E9378
:1030000018971B969C938E931A9755961C925597DA
:103010001D961C921E921C971F961C921E921E9724
:1030200081E054968C9354972FEF3FEF53963C9347
:103030002E93529751963C932E93509756968C937D
:10304000569757961C92579759961C921E925897CE
:1030500087E05A968C935A9788E05B968C935B979F
:1030600086E05C968C935C9784E05D968C935D978C
:1030700085E05E968C935E9782E293E011969C9336
:103080008E9389E095968C9361E00E94F512E09111
:10309000D904F091DA04C384D284F701828D8F3F82
:1030A00021F4938D9F3F09F418C661E00E94F51248
:1030B00061E0F701838D0E94F512D7015B968C9138
:1030C0005B97082E000C990BFC01E855F94FE49131
:1030D000F0E0EE0FFF1FE256F94F25913491F70112
:1030E00032A321A3FC01E657F94FE4919496EC93A7
:1030F00094975A968C915A97082E000C990BFC01C4
:10310000E855F94FE491F0E0EE0FFF1FE256F94F5A
:1031100025913491F70130A3278FFC01E657F94F31
:10312000E4919396EC9361E0D7015C968C910E94B8
:10313000F512F701858D18161CF461E00E94F51256
:10314000D7015E968C9118161CF461E00E94F5126E
:10315000F701858D18167CF460E00E94C51264EFBB
:1031600071E080E090E00E943B1561E0D7015D9640
:103170008C910E94C51261E2C7010E940D106C2D56
:103180006061C7010E940D10D7FE02C07FE7D72EF5
:103190006D2D6068C7010E940D1060E2C7010E949A
:1031A0000D106CE0C7010E940D10C7010E942D1088
:1031B000F801F1A2E0A2C090D904D090DA04D601BF
:1031C00018966C91BB24B3946B25F70185A10E94DE
:1031D000C51284E593E0D80198969C938E939797B7
:1031E00084E090E09A969C938E939997C6010796F7
:1031F0009C969C938E939B979D961C929D979E96D2
:10320000BC929E97D0961C921E929F97D2961C922B
:103210001E92D1978EE593E0D4969C938E93D3978C
:1032200022E030E0D6963C932E93D597C6010C96BB
:10323000D8969C938E93D797D9961C92D9978FEF57
:10324000DA968C93DA97DC961C921E92DB97DE96C8
:103250001C921E92DD97F801FF964CE653E05183D5
:1032600040833296318320833296A601435F5F4FBD
:103270005183408332961082319680833196118239
:103280001082329611821082329641E653E05183C9
:1032900040833296318320833296A601425F5F4F8E
:1032A000518340833296B082319680833196118269
:1032B0001082329611821082329648E753E0518391
:1032C00040833296EE24E394F12CF182E082329630
:1032D000A601415F5F4F518340833296B0823196A1
:1032E00093E6908331961182108232961182108279
:1032F000329644E853E051834083329631832083F1
:1033000032969601205F3F4F318320833296B08200
:10331000319680833196118210823296118210820A
:10332000329682E993E091838083329683E090E045
:10333000918380833296C601419691838083329631
:1033400082E3808331968AE58083319611821082F0
:1033500032961182108232968DE993E091838083B8
:103360003296F182E0823296C6010A96918380837A
:103370003296108231968FE7808331968EE994E001
:103380009183808332961182108232968AEA93E08A
:10339000918380833296118210823296C6010896FC
:1033A00091838083329610823196B08231968DEA75
:1033B00093E091838083329611821082329684EB5F
:1033C00093E0918380833296118210823296B9E025
:1033D000CB0ED11CD182C082329610823196B0823F
:1033E000319682E993E09183808332961182108234
:1033F000D801A156BF4F8CE0E6E0F3E001900D92BA
:103400008A95E1F7D801A555BF4F8CE0E2E1F3E0E2
:1034100001900D928A95E1F7F80112A262E0D62E92
:10342000D3A214A21093DC040093DB0480A191A129
:103430000E94F90FD8019096ED91FC919197B48A72
:1034400090968D919C919197FC01F38AE28AF18A82
:10345000E08A69EB73E00E94E01667EC73E0D80144
:1034600090968D919C9191970E94E016F80180A111
:1034700091A128E030E0DC011D963C932E931C972F
:1034800029E130E01F963C932E931E9764ED73E084
:103490000E94F416D8019096ED91FC919197D48AF0
:1034A0006091D9047091DA046F5F7F4FC8010E9468
:1034B0006F26F80180A191A12EE030E0DC011D967D
:1034C0003C932E931C9722E130E01F963C932E9361
:1034D0001E97B8010E94F416D8019096ED91FC91C8
:1034E0009197B48A90968D919C919197FC01158645
:1034F000148628E230E03787268766ED73E00E9465
:10350000E016D80190968D919C9191970E942D1074
:1035100086E090E00E945D248C0180E090E0A0E8CD
:10352000BFEBF80182839383A483B58384E190E0A9
:103530000E945D247C0160E080E10E94F51280E140
:1035400090E0D70151969C938E9350978FEF9FEF09
:1035500053969C938E935297F801F182E0821093D8
:10356000D8040093D70460E08AE00E94F51262E07C
:1035700082E00E94F51261E08CE00E94F51260E0AA
:103580008CE00E94C51261E08BE00E94F51260E0C1
:103590008BE00E94C51261E081E10E94F51260E0BB
:1035A00081E10E94C5120E9475156093E204709338
:1035B000E3048093E4049093E50401E010E04EE31B
:1035C000242E44E0342E8AE00E949C12F82E809132
:1035D0000201F81609F462C0F1E0FF125FC0811128
:1035E0005DC061E08BE00E94C512E091D904F091CA
:1035F000DA048781882331F124EC33E03093FC0234
:103600002093FB02809169008C7F82608093690027
:10361000E89A10920101109200011092D604809154
:10362000000190910101049729F08BE891E0019746
:10363000F1F7F5CFE8988BEF90E19093FC0280933F
:10364000FB0212C061E08CE00E94C5128AE00E9479
:103650009C12892B29F08BE39FE10197F1F7F6CFBC
:1036600060E08CE00E94C51260E08CE00E94C51210
:10367000A4E0B0E0B0930101A093000160E08BE012
:103680000E94C512E091DB04F091DC0416A305A3AF
:1036900064E670E080E090E00E943B15F092020149
:1036A000E091DB04F091DC0485A196A1009739F448
:1036B00082E090E096A385A30E94EE0557C2019791
:1036C00009F033C20E947515C090E204D090E30463
:1036D000E090E404F090E504DC01CB018C199D0935
:1036E000AE09BF09883E9340A105B10508F43EC26A
:1036F000C090D704D090D804D601ED90FC90F7018B
:1037000082899389019639F484EF91E0D701539629
:103710009C938E935297F70180898E3008F08E50DB
:103720008770806480937C0080917A0080648093AD
:103730007A0080917A0086FDFCCFA091780080917C
:103740007900B0E0B82BAD010B2E000C660B770BA7
:10375000F701448755876687778724E630E00E9423
:103760002C249B01AC01A289B3890E94332420E060
:1037700034E040E050E00E940D24D70118962D93CC
:103780003D934D935C931B97235B3A464109510946
:10379000F7012483358346835783A9E0B0E00E9474
:1037A000A22225E030E040E050E00E940D24DA0142
:1037B000C9018058934FAF4FBF4FF701808391836A
:1037C000A283B383D601ED91FC91648175818681DA
:1037D00097810E946F2120E030E048EC52E40E9483
:1037E00060236B017C0169837A838B839C83A09027
:1037F000D904B090DA04F501618970E080E090E0CE
:103800000E946F219B01AC01C701B6010E940824F0
:103810008090D7049090D80487FD69C0D401129697
:10382000CD92DD92ED92FC921597E090DB04F09042
:10383000DC04F70180A191A10E94F90FD7019096B5
:10384000ED91FC919197138B028B118B008B81E092
:10385000848B64EE73E090968D919C9191970E9479
:10386000E01663EF73E0F70180A191A10E94E016DA
:1038700060E074E0D70190968D919C9191970E94A1
:10388000E01664EE73E0F70180A191A10E94E016BA
:10389000BE016F5F7F4FC7010E94AC08D7019096B1
:1038A0008D919C9191970E942D1088EE93E00E943B
:1038B00031136CE271E080E090E00E943B1588EEED
:1038C00093E00E9431136CE271E080E090E00E948E
:1038D0003B1588EE93E00E9431136CE271E080E0CA
:1038E00090E00E943B158DE00E945916EBC0F40158
:1038F000428053806480758020E030E040E85FEBD8
:10390000C301B2010E946821882321F1A701960119
:10391000C301B2010E94F3222B013C0120E030E000
:10392000A9010E94082418165CF420E030E040E071
:103930005FE3C301B2010E94082418165CF0C2C004
:1039400020E030E040E05FEBC301B2010E9468215B
:1039500087FFB8C0D4011296CD92DD92ED92FC9211
:103960001597E090DB04F090DC04F70180A191A1B1
:103970000E94F90FD7019096ED91FC919197138BCE
:10398000028B118B008B81E0848BF501878188236A
:1039900009F462C08785823098F090891F929F93C6
:1039A0001F928F938CE094E09F938F93FF92EF92FE
:1039B0000E9476260FB6F894DEBF0FBECDBF10C0B2
:1039C0001F928F938EE194E09F938F93FF92EF92DB
:1039D0000E9476260F900F900F900F900F900F90EF
:1039E000D70190968D919C919197FC01118A108A34
:1039F000138B028BB7010E94E016D70190968D9130
:103A00009C919197FC01118B008B138A128A6FE2B3
:103A100074E00E94E016E091D904F091DA04868502
:103A20001F928F9385851F928F9384851F928F930A
:103A30003F922F92FF92EF920E947626B701D70114
:103A400090968D919C9191970E94E0160FB6F894F4
:103A5000DEBF0FBECDBF17C0D70190968D919C9150
:103A60009197FC01118A108A138B028B60E574E038
:103A70000E94E016D7019096ED91FC919197118BE1
:103A8000008B138A128AF70180A191A1DC011D9697
:103A90001C921E921C97EAE1F0E01F96FC93EE93B5
:103AA0001E976FE574E00E94F416BE016F5F7F4FB2
:103AB000C7010E94AC08D70190968D919C91919777
:103AC0000E942D10E091D904F091DA04618970E030
:103AD0006A507109072E000C880B990B0E946F2108
:103AE0006B017C0189809A80AB80BC80A501940128
:103AF0000E94082418163CF481E10E949C12892B34
:103B000059F160E00EC0A5019401C701B6010E9401
:103B1000682118160CF181E10E949C12892BE1F4B6
:103B200061E081E10E94C51217C00E947515C09026
:103B3000E204D090E304E090E404F090E504DC01BA
:103B4000CB018C199D09AE09BF0980339547A105AA
:103B5000B10560F00E94EE050E9475156093E204C5
:103B60007093E3048093E4049093E5048091E0046F
:103B70009091E1040E94F8047B01811104C062303D
:103B8000710509F48CC0C090DB04D090DC04D60130
:103B900095962D913C9196972230310599F02330DE
:103BA000310509F46BC02130310509F06EC088235E
:103BB00009F46BC00E94E30482E090E0F60196A352
:103BC00085A33EC08D830E94E304D60195962D9176
:103BD0003C9196978D812230310509F056C08111B4
:103BE00033C0E114F10421F0EA94EF2881F04DC0D4
:103BF000F60184A18B3021F18F5F84A393A19817E4
:103C0000F8F482A18F5F82A39F5F93A319C0D601AE
:103C100094968C919497882399F0815094968C93E4
:103C2000949792969C919297891750F491509296FE
:103C30009C93929793968C919397815093968C93A3
:103C4000C6010E94740521C0F60184A12CE0829F68
:103C5000E00DF11D112481A592A5059721F4C6015F
:103C60000E94410512C083E090E0D60196969C9395
:103C70008E93959762E070E080E005C08D830E948E
:103C8000E304B7018D810E941B060E9475156093A5
:103C9000E2047093E3048093E4049093E504E091DC
:103CA000DB04F091DC0485A196A1019771F4E0900A
:103CB000D904F090DA04F7018081882331F0C7013C
:103CC00001960E942311D7011C9280E090E0892B7D
:103CD00009F479CC0E94000072CCBFB6F8948091B0
:103CE000DD04811127C0E2EBF6E08491E4E9F6E01F
:103CF0009491E82FF0E0EE0FFF1FEE59F94FA591D8
:103D0000B491EC91E92321F461E08AE00E94C512AC
:103D100061E08AE00E94F5128CB580618CBD8CB5A3
:103D200080648CBD61E08DE00E94F51261E08BE063
:103D30000E94F5128091DD048F5F8093DD04BFBE89
:103D40008CB58C7F8CBD8DB58E7F8DBD8CB5837F02
:103D50008CBD8CB58F7D8CBDE6C9EF920F931F9300
:103D6000CF93DF93E80147FD02C034E001C034E1A6
:103D7000E42F440FFF0BF7FF03C0F195E195F10924
:103D8000E32E022F2E2FAE010E94F21ECE01DF91F4
:103D9000CF911F910F91EF900895BB274A3031F4D6
:103DA000992322F4BDE2909581959F4F0C94D91EE2
:103DB000BB27FB015527AA27880F991FAA1FA41705
:103DC00010F0A41B83955051B9F7A05DAA3308F0F9
:103DD000A95DA193009779F7B111B1931192CB012D
:103DE0000C9458214F925F926F927F929F92AF9264
:103DF000BF92CF92DF92EF92FF920F931F93CF93D8
:103E0000DF93CDB7DEB729970FB6F894DEBF0FBEAC
:103E1000CDBF6A01122FB02E2BE3201720F0FF2414
:103E2000F394F00E02C0BCE3FB2E0F2D27E0AE0191
:103E30004F5F5F4F0E948020AC018981982F99705D
:103E4000913031F0E1FC06C0E0FE06C090E205C012
:103E50009DE203C09BE201C090E0EE2DE07183FF84
:103E60003CC0911102C083E001C084E0811718F4C6
:103E7000212F281B01C020E0E1110BC0F601822F89
:103E800030E2882319F031938150FBCFC20ED11C50
:103E900020E0992329F0D6019C93F60131966F0119
:103EA000C6010396E2FE0AC03EE4D6013C9341E41B
:103EB00011964C93119712963C9306C03EE6F6017C
:103EC000308341E641833283FC01322F40E23323C9
:103ED00009F442C041933150FACF82FF44C091119E
:103EE00002C083E001C084E0811718F4212F281B51
:103EF00001C020E0E1110BC0F601822F30E28823DF
:103F000019F031938150FBCFC20ED11C20E09923D0
:103F100029F0D6019C93F60131966F01C6010396F4
:103F2000E2FE0BC039E4D6013C933EE411963C938B
:103F3000119736E412963C9307C039E6F6013083B8
:103F40003EE6318336E63283FC01322F40E23323F2
:103F500019F041933150FBCFFC01E20FF11D1082AB
:103F60008EEF9FEFB7C0F1E0911101C0F0E06F2F2D
:103F700070E01416150624F49A012F5F3F4F02C01B
:103F800021E030E0260F371FBB2029F06B2D70E0B9
:103F90006F5F7F4F02C060E070E0260F371F612F18
:103FA00070E0261737071CF4121B212F01C020E0F8
:103FB0003E2D387159F4D601322F60E2332319F0C7
:103FC0006D933150FBCFC20ED11C20E0FF2331F0A6
:103FD000D6019C93B6016F5F7F4F6B01E1110BC05F
:103FE000F601922F30E3992319F031939150FBCFD2
:103FF000C20ED11C20E09F2D940F3A81782F707152
:10400000A72E84FF03C0313309F49150191624F40C
:10401000993018F098E001C091E0E42F852F57FF08
:1040200002C0E0E080E06E2F782FE0E0F0E0AEE24A
:104030009A2E3A01691A71082A01461A570A0B2D5D
:1040400010E01195019511096F3F8FEF780729F462
:10405000D6019C92C60101966C014617570784F061
:10406000661677066CF47F01E40CF51CA1E0B0E065
:10407000AC0FBD1FEA0EFB1ED7011196BC9002C00B
:1040800090E3B92E615071093196C60101967C0109
:104090006017710724F0D601BC926C01D5CF64176C
:1040A000750741F4363320F4353321F4A11002C0F2
:1040B00081E3B82EF601B082F701822F90E28823C7
:1040C00019F091938150FBCFF701E20FF11D10829F
:1040D00080E090E029960FB6F894DEBF0FBECDBF0A
:1040E000DF91CF911F910F91FF90EF90DF90CF90D4
:1040F000BF90AF909F907F906F905F904F9008958A
:10410000283008F027E03327DA01990F311D87FDA9
:10411000916000966105710539F432602E5F3D9320
:1041200030E32A95E1F708959F3F30F0803871051C
:10413000610509F03C5F3C5F3D93913008F0806879
:10414000911DDF93CF931F930F93FF92EF92192F3F
:10415000987F9695E92F96959695E90FFF27EE5350
:10416000FF4F99273327EE24FF24A701E70105908D
:104170000894079428F4360FE71EF81E491F511DB6
:10418000660F771F881F991F0694A1F70590079463
:1041900028F4E70EF81E491F561FC11D770F881F10
:1041A000991F661F0694A1F70590079428F4F80E4E
:1041B000491F561FC71FD11D880F991F661F771FE4
:1041C0000694A1F70590079420F4490F561FC71FC6
:1041D000D81F990F661F771F881F0694A9F784912F
:1041E0001095177041F0D695C79557954795F79458
:1041F000E7941A95C1F7E8E6F0E0689415901591F8
:1042000035916591959105907FE27395E118F10ADA
:10421000430B560BC90BD009C0F7E10CF11E431F2D
:10422000561FC91FD01D7EF4703311F48A95E6CF56
:10423000E894015030F0080F0AF40027021708F440
:10424000202F2395022F7A3328F079E37D932A9546
:10425000E9F710C07D932A9589F60694979567959E
:10426000379517951794E118F10A430B560BC90BB4
:10427000D00998F023957E9173957A3308F070E316
:104280007C932013B8F77E9170617D9330F0839515
:1042900071E37D9370E32A95E1F71124EF90FF908D
:1042A0000F911F91CF91DF91992787FD90950895E8
:1042B000DC01FC01672F71917723E1F7329704C08D
:1042C0007C916D9370836291AE17BF07C8F3089518
:1042D0000E94AA2108F481E00895E89409C097FBA0
:1042E0003EF490958095709561957F4F8F4F9F4FCD
:1042F0009923A9F0F92F96E9BB279395F695879511
:1043000077956795B795F111F8CFFAF4BB0F11F4D3
:1043100060FF1BC06F5F7F4F8F4F9F4F16C088237A
:1043200011F096E911C0772321F09EE8872F762FB0
:1043300005C0662371F096E8862F70E060E02AF0F1
:104340009A95660F771F881FDAF7880F96958795DD
:1043500097F90895990F0008550FAA0BE0E8FEEFB2
:1043600016161706E807F907C0F012161306E40739
:10437000F50798F0621B730B840B950B39F40A2632
:1043800061F0232B242B252B21F408950A2609F410
:10439000A140A6958FEF811D811D08950E94E12106
:1043A0000C9452220E94442238F00E944B2220F0AA
:1043B000952311F00C943B220C94412211240C946F
:1043C00086220E94632270F3959FC1F3950F50E0FF
:1043D000551F629FF001729FBB27F00DB11D639FB7
:1043E000AA27F00DB11DAA1F649F6627B00DA11D5D
:1043F000661F829F2227B00DA11D621F739FB00D03
:10440000A11D621F839FA00D611D221F749F332772
:10441000A00D611D231F849F600D211D822F762F0B
:104420006A2F11249F5750409AF0F1F088234AF0E8
:10443000EE0FFF1FBB1F661F771F881F9150504054
:10444000A9F79E3F510580F00C943B220C948622E4
:104450005F3FE4F3983ED4F3869577956795B795DB
:10446000F795E7959F5FC1F7FE2B880F911D9695F5
:10447000879597F9089597F99F6780E870E060E065
:1044800008959FEF80EC089500240A9416161706ED
:1044900018060906089500240A9412161306140635
:1044A00005060895092E0394000C11F4882352F098
:1044B000BB0F40F4BF2B11F460FF04C06F5F7F4F50
:1044C0008F4F9F4F089557FD9058440F551F59F037
:1044D0005F3F71F04795880F97FB991F61F09F3FF1
:1044E00079F087950895121613061406551FF2CF1A
:1044F0004695F1DF08C0161617061806991FF1CF6A
:1045000086957105610508940895E894BB27662790
:104510007727CB0197F90895F999FECF92BD81BD18
:10452000F89A992780B50895262FF999FECF1FBADA
:1045300092BD81BD20BD0FB6F894FA9AF99A0FBECC
:10454000019608950E94E422A59F900DB49F900DBE
:10455000A49F800D911D112408952F923F924F9298
:104560005F926F927F928F929F92AF92BF92CF9203
:10457000DF92EF92FF920F931F93CF93DF93CDB70C
:10458000DEB7CA1BDB0B0FB6F894DEBF0FBECDBF84
:1045900009942A88398848885F846E847D848C8455
:1045A0009B84AA84B984C884DF80EE80FD800C815E
:1045B0001B81AA81B981CE0FD11D0FB6F894DEBF41
:1045C0000FBECDBFED010895A29FB001B39FC00102
:1045D000A39F700D811D1124911DB29F700D811D2F
:1045E0001124911D08955058BB27AA270E940B2320
:1045F0000C9452220E94442238F00E944B2220F058
:1046000039F49F3F19F426F40C9441220EF4E095FE
:10461000E7FB0C943B22E92F0E94632258F3BA1760
:10462000620773078407950720F079F4A6F50C94C8
:1046300085220EF4E0950B2EBA2FA02D0B01B901A7
:1046400090010C01CA01A0011124FF27591B99F008
:10465000593F50F4503E68F11A16F040A22F232F14
:10466000342F4427585FF3CF469537952795A79564
:10467000F0405395C9F77EF41F16BA0B620B730B0B
:10468000840BBAF09150A1F0FF0FBB1F661F771F7C
:10469000881FC2F70EC0BA0F621F731F841F48F431
:1046A000879577956795B795F7959E3F08F0B0CFBA
:1046B0009395880F08F09927EE0F979587950895A1
:1046C0000E9474230C9452220E944B2258F00E94A4
:1046D000442240F029F45F3F29F00C943B22511111
:1046E0000C9486220C9441220E94632268F3992341
:1046F000B1F3552391F3951B550BBB27AA276217DE
:104700007307840738F09F5F5F4F220F331F441FEA
:10471000AA1FA9F335D00E2E3AF0E0E832D091501E
:104720005040E695001CCAF72BD0FE2F29D0660F0B
:10473000771F881FBB1F261737074807AB07B0E84E
:1047400009F0BB0B802DBF01FF2793585F4F3AF054
:104750009E3F510578F00C943B220C9486225F3FDB
:10476000E4F3983ED4F3869577956795B795F795DA
:104770009F5FC9F7880F911D9695879597F90895C2
:10478000E1E0660F771F881FBB1F6217730784075E
:10479000BA0720F0621B730B840BBA0BEE1F88F76D
:1047A000E09508950E94D9236894B1110C94862253
:1047B00008950E946B2288F09F5798F0B92F99278F
:1047C000B751B0F0E1F0660F771F881F991F1AF0FC
:1047D000BA95C9F714C0B13091F00E948522B1E0BA
:1047E00008950C948522672F782F8827B85F39F0B9
:1047F000B93FCCF3869577956795B395D9F73EF495
:1048000090958095709561957F4F8F4F9F4F08953C
:104810000E94AA2108F48FEF0895052E97FB1EF43D
:1048200000940E94242457FD07D00E943B2407FCDB
:1048300003D04EF40C942424509540953095219546
:104840003F4F4F4F5F4F08959095809570956195BC
:104850007F4F8F4F9F4F08950E94E422B7FF089526
:10486000821B930B0895B7FF0C94A2220E94A222F0
:10487000821B930B0895A1E21A2EAA1BBB1BFD01FC
:104880000DC0AA1FBB1FEE1FFF1FA217B307E4072F
:10489000F50720F0A21BB30BE40BF50B661F771F87
:1048A000881F991F1A9469F7609570958095909567
:1048B0009B01AC01BD01CF010895CF93DF938230FE
:1048C000910510F482E090E0E0910F05F091100561
:1048D00020E030E0C0E0D0E0309711F1408151811C
:1048E00048175907C0F04817590761F4828193812E
:1048F000209719F09B838A832BC090931005809397
:104900000F0526C02115310519F04217530718F479
:104910009A01BE01DF01EF010280F381E02DDCCFBF
:104920002115310509F1281B390B2430310590F48C
:1049300012968D919C9113976115710521F0FB01E1
:104940009383828304C09093100580930F05FD012B
:10495000329644C0FD01E20FF31F819391932250E0
:1049600031092D933C933AC020910D0530910E05ED
:10497000232B41F4209102033091030330930E0561
:1049800020930D052091000330910103211531057D
:1049900041F42DB73EB74091040350910503241B09
:1049A000350BE0910D05F0910E05E217F307A0F429
:1049B0002E1B3F0B2817390778F0AC014E5F5F4F75
:1049C0002417350748F04E0F5F1F50930E05409394
:1049D0000D058193919302C0E0E0F0E0CF01DF91FB
:1049E000CF9108950F931F93CF93DF93009709F40E
:1049F0008CC0FC0132971382128200910F05109136
:104A000010050115110581F420813181820F931F5A
:104A100020910D0530910E052817390779F5F0938F
:104A20000E05E0930D0571C0D80140E050E0AE17CF
:104A3000BF0750F412962D913C911397AD012115AB
:104A4000310509F1D901F3CF9D01DA0133832283C6
:104A500060817181860F971F8217930769F4EC01BB
:104A600028813981260F371F2E5F3F4F31832083E6
:104A70008A819B8193838283452B29F4F0931005CF
:104A8000E0930F0542C01396FC93EE931297ED014D
:104A9000499159919E01240F351FE217F30771F4D4
:104AA00080819181840F951F029611969C938E931D
:104AB0008281938113969C938E931297E0E0F0E0AD
:104AC000D80112968D919C911397009719F0F801D7
:104AD0008C01F6CF8D919C9198012E5F3F4F820FF4
:104AE000931F20910D0530910E052817390769F4A1
:104AF000309729F41092100510920F0502C013820E
:104B0000128210930E0500930D05DF91CF911F9136
:104B10000F910895A0E0B0E0E0E9F5E20C94B12235
:104B2000EC01009721F4CB010E945D24B8C0FC0188
:104B3000E60FF71F9C0122503109E217F30708F432
:104B4000ACC0D9010D911C91119706171707B0F051
:104B50000530110508F49FC0C80104978617970710
:104B600008F499C002501109061B170B0193119309
:104B70006D937C93CF010E94F2248DC05B01A01A3B
:104B8000B10A4C01800E911EA0910F05B091100545
:104B900040E050E0E12CF12C109709F44AC0A81530
:104BA000B905D1F56D907C901197630182E0C80E34
:104BB000D11CCA14DB0480F1A3014A195B096A0104
:104BC00082E0C80ED11C1296BC9012971396AC913D
:104BD000B5E0CB16D10440F0B282A3835183408369
:104BE000D9016D937C930AC00E5F1F4FC301800FE4
:104BF000911FF90191838083EB2DFA2FE114F104C9
:104C000031F0D7011396FC93EE93129744C0F093C2
:104C10001005E0930F053FC08D919C9111974817A7
:104C2000590708F4AC017D0112960D90BC91A02D9E
:104C3000B3CF80910D0590910E0588159905E1F48B
:104C400046175707C8F4809100039091010300971D
:104C500041F48DB79EB74091040350910503841B26
:104C6000950BE817F907C8F4F0930E05E0930D05CE
:104C7000F901718360830FC0CB010E945D247C0128
:104C8000009759F0A801BE010E946626CE010E943D
:104C9000F224C70104C0CE0102C080E090E0CDB78D
:104CA000DEB7EEE00C94CD2281E090E0F8940C9415
:104CB0001729FB01DC0104C08D910190801921F4BA
:104CC00041505040C8F7881B990B0895FB01DC0147
:104CD00002C001900D9241505040D8F70895FB0159
:104CE000DC0101900D920020E1F70895AEE0B0E004
:104CF000ECE7F6E20C94BB220D891E8986E08C83DA
:104D00001A8309838FEF9FE79E838D83AE01475EF1
:104D10005F4F6F89788DCE0101960E9499262F8171
:104D20003885F801E20FF31F10822E96E4E00C9410
:104D3000D722ACE0B0E0EFE9F6E20C94AD227C01C2
:104D40006B018A01FC0117821682838181FFBDC13C
:104D5000CE0101964C01F7019381F60193FD8591F7
:104D600093FF81916F01882309F4ABC1853239F437
:104D700093FD859193FF81916F01853229F4B701ED
:104D800090E00E948128E7CF512C312C20E0203286
:104D9000A0F48B3269F030F4803259F0833269F438
:104DA00020612CC08D3239F0803339F4216026C067
:104DB0002260246023C0286021C027FD27C030ED79
:104DC000380F3A3078F426FF06C0FAE05F9E300DC7
:104DD0001124532E13C08AE0389E300D1124332E37
:104DE00020620CC08E3221F426FD6BC1206406C007
:104DF0008C3611F4206802C0883641F4F60193FD28
:104E0000859193FF81916F018111C1CF982F9F7D73
:104E10009554933028F40C5F1F4FFFE3F9830DC0C6
:104E2000833631F0833771F0833509F05BC022C0DF
:104E3000F801808189830E5F1F4F44244394512CD5
:104E4000540115C03801F2E06F0E711CF801A0800A
:104E5000B18026FF03C0652D70E002C06FEF7FEFC9
:104E6000C5012C870E9476282C0183012C852F7781
:104E7000222E17C03801F2E06F0E711CF801A080DD
:104E8000B18026FF03C0652D70E002C06FEF7FEF99
:104E9000C5012C870E946B282C012C852068222EAE
:104EA000830123FC1BC0832D90E048165906B0F403
:104EB000B70180E290E00E9481283A94F4CFF50196
:104EC00027FC859127FE81915F01B70190E00E9448
:104ED000812831103A94F1E04F1A510841145104DD
:104EE00071F7E5C0843611F0893639F5F80127FFEE
:104EF00007C060817181828193810C5F1F4F08C060
:104F000060817181072E000C880B990B0E5F1F4F7B
:104F10002F76722E97FF09C09095809570956195B8
:104F20007F4F8F4F9F4F2068722E2AE030E0A40100
:104F30000E94B928A82EA81844C0853729F42F7ECE
:104F4000B22E2AE030E025C0F22FF97FBF2E8F3637
:104F5000C1F018F4883579F0B4C0803719F088377B
:104F600021F0AFC02F2F2061B22EB4FE0DC08B2DCB
:104F70008460B82E09C024FF0AC09F2F9660B92E06
:104F800006C028E030E005C020E130E002C020E1AA
:104F900032E0F801B7FE07C06081718182819381A0
:104FA0000C5F1F4F06C06081718180E090E00E5F52
:104FB0001F4FA4010E94B928A82EA818FB2DFF7727
:104FC0007F2E76FE0BC0372D3E7FA51450F474FE65
:104FD0000AC072FC08C0372D3E7E05C0BA2C372DA2
:104FE00003C0BA2C01C0B52C34FF0DC0FE01EA0D80
:104FF000F11D8081803311F4397E09C032FF06C073
:10500000B394B39404C0832F867809F0B39433FD2E
:1050100013C030FF06C05A2CB31418F4530C5B189D
:10502000B32CB31468F4B70180E290E03C870E948F
:105030008128B3943C85F5CFB31410F43B1801C01C
:10504000312C34FF12C0B70180E390E03C870E940E
:1050500081283C8532FF17C031FD03C088E790E00E
:1050600002C088E590E0B7010CC0832F867859F024
:1050700031FF02C08BE201C080E237FD8DE2B70153
:1050800090E00E948128A51438F4B70180E390E0F5
:105090000E9481285A94F7CFAA94F401EA0DF11DD9
:1050A0008081B70190E00E948128A110F5CF3320C4
:1050B00009F451CEB70180E290E00E9481283A9431
:1050C000F6CFF7018681978102C08FEF9FEF2C9674
:1050D000E2E10C94C922FC0105906150704001107E
:1050E000D8F7809590958E0F9F1F0895FC01615011
:1050F000704001900110D8F7809590958E0F9F1FFA
:1051000008950F931F93CF93DF93FB01238121FD1C
:1051100003C08FEF9FEF28C022FF16C04681578142
:10512000248135814217530744F4A081B1819D0148
:105130002F5F3F4F318320838C93268137812F5FF0
:105140003F4F3783268310C0EB01092F182F0084AF
:10515000F185E02D0995892BE1F68E819F810196DD
:105160009F838E83812F902FDF91CF911F910F917D
:105170000895FA01AA27283051F1203181F1E894ED
:105180006F936E7F6E5F7F4F8F4F9F4FAF4FB1E03A
:105190003ED0B4E03CD0670F781F891F9A1FA11D35
:1051A000680F791F8A1F911DA11D6A0F711D811D36
:1051B000911DA11D20D009F468943F912AE0269FFB
:1051C00011243019305D3193DEF6CF010895462F5A
:1051D0004770405D4193B3E00FD0C9F7F6CF462F3B
:1051E0004F70405D4A3318F0495D31FD40524193A4
:1051F00002D0A9F7EACFB4E0A69597958795779561
:105200006795BA95C9F700976105710508959B01E7
:10521000AC010A2E06945795479537952795BA9570
:10522000C9F7620F731F841F951FA01D0895F8947E
:02523000FFCFAE
:105232000400010000000000000000000000000067
:10524200000000000000000000000000000000005C
:10525200000000000000000000C0E0F0F8FCFCFECE
:10526200FFFCE00000000000000000000000000061
:10527200000000000000000000000000000000002C
:10528200000000000000000000000000000000001C
:105292000000000000000000F8F8F8F8F8F8F8F84C
:1052A200F8F8F8F8F0F0E0E0C080C0FCFFFFFFFF84
:1052B2007F3F7FFFFFFFFFFF0000000000000000B4
:1052C20000000000000000000000000000000000DC
:1052D20000000000000000000000000000000000CC
:1052E200000000000000000000000000000F1F3F4F
:1052F2007FFFFFFFFFFFFFFFFFE7C7C7878F9F9F6C
:10530200FFFFFFC1C0E0FCFFFFFFFFFFFCFCFCFC56
:10531200FEFEFEFCFCF8F8F0E0C0C0000000000059
:10532200000000000000000000000000000000007B
:10533200000000000000000000000000000000006B
:105342000000000080C0E0F1FBFFFFFFFFFF7F1FB6
:105352000F0F87E7FFFFFF1F1F3FF9F8F8F8F8F874
:10536200F8FDFFFFFFFFFFFFFFFFFF7F3F0F07017A
:10537200000000000000000000000000000000002B
:10538200000000000000000000000000000000001B
:10539200000000000000F0FEFFFFFFFFFFFFFFFF25
:1053A200FFFFFE7E3F3F0F1FFFFFFFFCF0E0F1FF1C
:1053B200FFFFFFFFFCF001010101010101010000FB
:1053C20000000000000000000000000000000000DB
:1053D20000000000000000000000000000000000CB
:1053E20000000000000000000000030303030303A9
:1053F20003030101010100000000000000030F1F70
:105402003F7F7FFFFFFFFF7F7F1F03000000000041
:10541200000000000000000000000000000000008A
:105422000000000000000000000000FB10FB10FF65
:105432000000110580006904050000000000480911
:105442000000750405000000000072040000000066
:105452000000DD0B19167F037E038B0FB00EA90E21
:10546200810E9D0E910EB10E800EB209B1093B0E56
:10547200F70DA70D890D120DB30C21099C04302ED6
:10548200302E320057656C64206D6F646500507277
:105492006557656C642070756C7365005061757337
:1054A200652070756C7365005061636B6574732061
:1054B200636E74005061636B657473207061757301
:1054C20065004D4F5420542E416C726D004C434484
:1054D20020636F6E7472617374004C4344206C6974
:1054E2006768740042656570002041726475696E78
:1054F2006F204E616E6F002053706F742057656C81
:105502006465720076002042542D536F6674203217
:105512003031380021212121212121212121212164
:10552200212100204D4F542054656D702069730075
:105532002020746F6F2068696768210050632025FE
:105542002D32642020507020252D336420005063BA
:1055520020252D326420205070202D202020005044
:10556200776C6420205061757320576C6400252D80
:105572003364202020252D33642020252D33640020
:105582004D616E75616C2077656C64696E67004D64
:105592004F542054656D703A0046637472792072DC
:1055A200657365740045786974206D656E75005287
:1055B200657475726E2E2E2E004D41494E204D455A
:1055C2004E55003E004F4E004F46460050756C73DC
:1055D20065004D616E75616C0056616C7565004DBC
:1055E2006F646500756E6B6E6F776E0025634300A6
:1055F2007320006D73005245534554004F6B2E2E9D
:065602002E000D0A00005D
:00000001FF
